{
  "_format": "hh-sol-artifact-1",
  "contractName": "Raffle",
  "sourceName": "contracts/Raffle.sol",
  "abi": [
    {
      "inputs": [
        {
          "internalType": "address",
          "name": "vrfCoordinatorV2",
          "type": "address"
        },
        {
          "internalType": "uint256",
          "name": "entranceFee",
          "type": "uint256"
        }
      ],
      "stateMutability": "nonpayable",
      "type": "constructor"
    },
    {
      "inputs": [
        {
          "internalType": "address",
          "name": "have",
          "type": "address"
        },
        {
          "internalType": "address",
          "name": "want",
          "type": "address"
        }
      ],
      "name": "OnlyCoordinatorCanFulfill",
      "type": "error"
    },
    {
      "inputs": [],
      "name": "Raffle_notEnoughFeeToEnter",
      "type": "error"
    },
    {
      "anonymous": false,
      "inputs": [
        {
          "indexed": true,
          "internalType": "address",
          "name": "player",
          "type": "address"
        }
      ],
      "name": "RaffleEnter",
      "type": "event"
    },
    {
      "inputs": [],
      "name": "enterRaffle",
      "outputs": [],
      "stateMutability": "payable",
      "type": "function"
    },
    {
      "inputs": [],
      "name": "getEntranceFee",
      "outputs": [
        {
          "internalType": "uint256",
          "name": "",
          "type": "uint256"
        }
      ],
      "stateMutability": "view",
      "type": "function"
    },
    {
      "inputs": [
        {
          "internalType": "uint256",
          "name": "index",
          "type": "uint256"
        }
      ],
      "name": "getPlayer",
      "outputs": [
        {
          "internalType": "address",
          "name": "",
          "type": "address"
        }
      ],
      "stateMutability": "view",
      "type": "function"
    },
    {
      "inputs": [
        {
          "internalType": "uint256",
          "name": "requestId",
          "type": "uint256"
        },
        {
          "internalType": "uint256[]",
          "name": "randomWords",
          "type": "uint256[]"
        }
      ],
      "name": "rawFulfillRandomWords",
      "outputs": [],
      "stateMutability": "nonpayable",
      "type": "function"
    }
  ],
  "bytecode": "0x60e060405234801561001057600080fd5b50604051610824380380610824833981810160405281019061003291906100db565b818073ffffffffffffffffffffffffffffffffffffffff1660808173ffffffffffffffffffffffffffffffffffffffff1660601b81525050508060a081815250508173ffffffffffffffffffffffffffffffffffffffff1660c08173ffffffffffffffffffffffffffffffffffffffff1660601b81525050505061018a565b6000815190506100c08161015c565b92915050565b6000815190506100d581610173565b92915050565b600080604083850312156100f2576100f1610157565b5b6000610100858286016100b1565b9250506020610111858286016100c6565b9150509250929050565b60006101268261012d565b9050919050565b600073ffffffffffffffffffffffffffffffffffffffff82169050919050565b6000819050919050565b600080fd5b6101658161011b565b811461017057600080fd5b50565b61017c8161014d565b811461018757600080fd5b50565b60805160601c60a05160c05160601c61065b6101c9600039600050506000818160e301526101c9015260008181610109015261015d015261065b6000f3fe60806040526004361061003f5760003560e01c806309bc33a7146100445780631fe543e31461006f5780632cfcc53914610098578063e55ae4e8146100a2575b600080fd5b34801561005057600080fd5b506100596100df565b60405161006691906104b2565b60405180910390f35b34801561007b57600080fd5b50610096600480360381019061009191906103f4565b610107565b005b6100a06101c7565b005b3480156100ae57600080fd5b506100c960048036038101906100c491906103c7565b6102c9565b6040516100d6919061046e565b60405180910390f35b60007f0000000000000000000000000000000000000000000000000000000000000000905090565b7f000000000000000000000000000000000000000000000000000000000000000073ffffffffffffffffffffffffffffffffffffffff163373ffffffffffffffffffffffffffffffffffffffff16146101b957337f00000000000000000000000000000000000000000000000000000000000000006040517f1cf993f40000000000000000000000000000000000000000000000000000000081526004016101b0929190610489565b60405180910390fd5b6101c38282610310565b5050565b7f0000000000000000000000000000000000000000000000000000000000000000341015610221576040517f8702417a00000000000000000000000000000000000000000000000000000000815260040160405180910390fd5b6000339080600181540180825580915050600190039060005260206000200160009091909190916101000a81548173ffffffffffffffffffffffffffffffffffffffff021916908373ffffffffffffffffffffffffffffffffffffffff1602179055503373ffffffffffffffffffffffffffffffffffffffff167f0805e1d667bddb8a95f0f09880cf94f403fb596ce79928d9f29b74203ba284d460405160405180910390a2565b60008082815481106102de576102dd61058b565b5b9060005260206000200160009054906101000a900473ffffffffffffffffffffffffffffffffffffffff169050919050565b5050565b6000610327610322846104f2565b6104cd565b9050808382526020820190508285602086028201111561034a576103496105ee565b5b60005b8581101561037a578161036088826103b2565b84526020840193506020830192505060018101905061034d565b5050509392505050565b600082601f830112610399576103986105e9565b5b81356103a9848260208601610314565b91505092915050565b6000813590506103c18161060e565b92915050565b6000602082840312156103dd576103dc6105f8565b5b60006103eb848285016103b2565b91505092915050565b6000806040838503121561040b5761040a6105f8565b5b6000610419858286016103b2565b925050602083013567ffffffffffffffff81111561043a576104396105f3565b5b61044685828601610384565b9150509250929050565b6104598161051e565b82525050565b61046881610550565b82525050565b60006020820190506104836000830184610450565b92915050565b600060408201905061049e6000830185610450565b6104ab6020830184610450565b9392505050565b60006020820190506104c7600083018461045f565b92915050565b60006104d76104e8565b90506104e3828261055a565b919050565b6000604051905090565b600067ffffffffffffffff82111561050d5761050c6105ba565b5b602082029050602081019050919050565b600061052982610530565b9050919050565b600073ffffffffffffffffffffffffffffffffffffffff82169050919050565b6000819050919050565b610563826105fd565b810181811067ffffffffffffffff82111715610582576105816105ba565b5b80604052505050565b7f4e487b7100000000000000000000000000000000000000000000000000000000600052603260045260246000fd5b7f4e487b7100000000000000000000000000000000000000000000000000000000600052604160045260246000fd5b600080fd5b600080fd5b600080fd5b600080fd5b6000601f19601f8301169050919050565b61061781610550565b811461062257600080fd5b5056fea26469706673582212207c2d4cc189aa06fedf87b3a4bf1feea4b4c54dfe9a4a952c2589ef70c6bff4de64736f6c63430008070033",
  "linkReferences": {},
  "deployedLinkReferences": {}
}