{
  "address": "0x13A51722c32619c50031eB5155c031Da609C9e0F",
  "abi": [
    {
      "inputs": [
        {
          "internalType": "address",
          "name": "vrfCoordinatorV2",
          "type": "address"
        },
        {
          "internalType": "uint256",
          "name": "entranceFee",
          "type": "uint256"
        },
        {
          "internalType": "bytes32",
          "name": "gasLane",
          "type": "bytes32"
        },
        {
          "internalType": "uint64",
          "name": "subscriptionId",
          "type": "uint64"
        },
        {
          "internalType": "uint32",
          "name": "callbackGasLimit",
          "type": "uint32"
        },
        {
          "internalType": "uint256",
          "name": "interval",
          "type": "uint256"
        }
      ],
      "stateMutability": "nonpayable",
      "type": "constructor"
    },
    {
      "inputs": [
        {
          "internalType": "address",
          "name": "have",
          "type": "address"
        },
        {
          "internalType": "address",
          "name": "want",
          "type": "address"
        }
      ],
      "name": "OnlyCoordinatorCanFulfill",
      "type": "error"
    },
    {
      "inputs": [],
      "name": "Raffle__NotOpen",
      "type": "error"
    },
    {
      "inputs": [],
      "name": "Raffle__TransactionFail",
      "type": "error"
    },
    {
      "inputs": [
        {
          "internalType": "uint256",
          "name": "players",
          "type": "uint256"
        },
        {
          "internalType": "uint256",
          "name": "balance",
          "type": "uint256"
        },
        {
          "internalType": "uint256",
          "name": "state",
          "type": "uint256"
        }
      ],
      "name": "Raffle__UpkeepNotNeeded",
      "type": "error"
    },
    {
      "inputs": [],
      "name": "Raffle__notEnoughFeeToEnter",
      "type": "error"
    },
    {
      "anonymous": false,
      "inputs": [
        {
          "indexed": true,
          "internalType": "address",
          "name": "player",
          "type": "address"
        }
      ],
      "name": "RaffleEnter",
      "type": "event"
    },
    {
      "anonymous": false,
      "inputs": [
        {
          "indexed": true,
          "internalType": "uint256",
          "name": "requestId",
          "type": "uint256"
        }
      ],
      "name": "RequestedRaffleWinner",
      "type": "event"
    },
    {
      "anonymous": false,
      "inputs": [
        {
          "indexed": true,
          "internalType": "address",
          "name": "player",
          "type": "address"
        }
      ],
      "name": "WinnerPicked",
      "type": "event"
    },
    {
      "inputs": [
        {
          "internalType": "bytes",
          "name": "",
          "type": "bytes"
        }
      ],
      "name": "checkUpkeep",
      "outputs": [
        {
          "internalType": "bool",
          "name": "upkeepNeeded",
          "type": "bool"
        },
        {
          "internalType": "bytes",
          "name": "",
          "type": "bytes"
        }
      ],
      "stateMutability": "nonpayable",
      "type": "function"
    },
    {
      "inputs": [],
      "name": "enterRaffle",
      "outputs": [],
      "stateMutability": "payable",
      "type": "function"
    },
    {
      "inputs": [],
      "name": "getEntranceFee",
      "outputs": [
        {
          "internalType": "uint256",
          "name": "",
          "type": "uint256"
        }
      ],
      "stateMutability": "view",
      "type": "function"
    },
    {
      "inputs": [],
      "name": "getInterval",
      "outputs": [
        {
          "internalType": "uint256",
          "name": "",
          "type": "uint256"
        }
      ],
      "stateMutability": "view",
      "type": "function"
    },
    {
      "inputs": [],
      "name": "getLastTimeStamp",
      "outputs": [
        {
          "internalType": "uint256",
          "name": "",
          "type": "uint256"
        }
      ],
      "stateMutability": "view",
      "type": "function"
    },
    {
      "inputs": [],
      "name": "getNumberOfPlayers",
      "outputs": [
        {
          "internalType": "uint256",
          "name": "",
          "type": "uint256"
        }
      ],
      "stateMutability": "view",
      "type": "function"
    },
    {
      "inputs": [
        {
          "internalType": "uint256",
          "name": "index",
          "type": "uint256"
        }
      ],
      "name": "getPlayer",
      "outputs": [
        {
          "internalType": "address",
          "name": "",
          "type": "address"
        }
      ],
      "stateMutability": "view",
      "type": "function"
    },
    {
      "inputs": [],
      "name": "getRecentWiner",
      "outputs": [
        {
          "internalType": "address",
          "name": "",
          "type": "address"
        }
      ],
      "stateMutability": "view",
      "type": "function"
    },
    {
      "inputs": [],
      "name": "getState",
      "outputs": [
        {
          "internalType": "enum Raffle.RaffleState",
          "name": "",
          "type": "uint8"
        }
      ],
      "stateMutability": "view",
      "type": "function"
    },
    {
      "inputs": [
        {
          "internalType": "bytes",
          "name": "",
          "type": "bytes"
        }
      ],
      "name": "performUpkeep",
      "outputs": [],
      "stateMutability": "nonpayable",
      "type": "function"
    },
    {
      "inputs": [
        {
          "internalType": "uint256",
          "name": "requestId",
          "type": "uint256"
        },
        {
          "internalType": "uint256[]",
          "name": "randomWords",
          "type": "uint256[]"
        }
      ],
      "name": "rawFulfillRandomWords",
      "outputs": [],
      "stateMutability": "nonpayable",
      "type": "function"
    }
  ],
  "transactionHash": "0x51ca4c15e7a2b4fe4ee419ea1cb550d97f37f378d997a677229f64fca40faf87",
  "args": [
    "0x6168499c0cFfCaCD319c818142124B7A15E857ab",
    "10000000000000000",
    "0xd89b2bf150e3b9e13446986e571fb9cab24b13cea0a43ea20a6049a85cc807cc",
    "9457",
    "500000",
    "30"
  ],
  "numDeployments": 1,
  "solcInputHash": "53408721c70585de9f5c07ee099e4f17",
  "bytecode": "0x6101606040523480156200001257600080fd5b50604051620017c2380380620017c28339818101604052810190620000389190620001ad565b858073ffffffffffffffffffffffffffffffffffffffff1660808173ffffffffffffffffffffffffffffffffffffffff1660601b81525050508460a081815250508573ffffffffffffffffffffffffffffffffffffffff1660c08173ffffffffffffffffffffffffffffffffffffffff1660601b815250508360e081815250508267ffffffffffffffff166101008167ffffffffffffffff1660c01b815250508163ffffffff166101208163ffffffff1660e01b815250506000600160146101000a81548160ff02191690836001811115620001195762000118620002b5565b5b0217905550426002819055508061014081815250505050505050506200036b565b6000815190506200014b81620002e9565b92915050565b600081519050620001628162000303565b92915050565b60008151905062000179816200031d565b92915050565b600081519050620001908162000337565b92915050565b600081519050620001a78162000351565b92915050565b60008060008060008060c08789031215620001cd57620001cc620002e4565b5b6000620001dd89828a016200013a565b9650506020620001f089828a0162000168565b95505060406200020389828a0162000151565b94505060606200021689828a0162000196565b93505060806200022989828a016200017f565b92505060a06200023c89828a0162000168565b9150509295509295509295565b6000620002568262000267565b9050919050565b6000819050919050565b600073ffffffffffffffffffffffffffffffffffffffff82169050919050565b6000819050919050565b600063ffffffff82169050919050565b600067ffffffffffffffff82169050919050565b7f4e487b7100000000000000000000000000000000000000000000000000000000600052602160045260246000fd5b600080fd5b620002f48162000249565b81146200030057600080fd5b50565b6200030e816200025d565b81146200031a57600080fd5b50565b620003288162000287565b81146200033457600080fd5b50565b620003428162000291565b81146200034e57600080fd5b50565b6200035c81620002a1565b81146200036857600080fd5b50565b60805160601c60a05160c05160601c60e0516101005160c01c6101205160e01c610140516113db620003e76000396000818161072901526107970152600061061f015260006105fc015260006105db0152600061059f01526000818161027e01526103e80152600081816102bb015261030f01526113db6000f3fe60806040526004361061009c5760003560e01c80636e04ff0d116100645780636e04ff0d1461015357806391ad27b414610191578063c1c244e8146101bc578063caf48ba0146101e7578063e55ae4e814610212578063fd6673f51461024f5761009c565b806309bc33a7146100a15780631865c57d146100cc5780631fe543e3146100f75780632cfcc539146101205780634585e33b1461012a575b600080fd5b3480156100ad57600080fd5b506100b661027a565b6040516100c39190610fe1565b60405180910390f35b3480156100d857600080fd5b506100e16102a2565b6040516100ee9190610fc6565b60405180910390f35b34801561010357600080fd5b5061011e60048036038101906101199190610dba565b6102b9565b005b610128610379565b005b34801561013657600080fd5b50610151600480360381019061014c9190610cca565b6104e8565b005b34801561015f57600080fd5b5061017a60048036038101906101759190610d17565b6106e7565b604051610188929190610f43565b60405180910390f35b34801561019d57600080fd5b506101a6610793565b6040516101b39190610fe1565b60405180910390f35b3480156101c857600080fd5b506101d16107bb565b6040516101de9190610fe1565b60405180910390f35b3480156101f357600080fd5b506101fc6107c5565b6040516102099190610eff565b60405180910390f35b34801561021e57600080fd5b5061023960048036038101906102349190610d60565b6107ef565b6040516102469190610eff565b60405180910390f35b34801561025b57600080fd5b50610264610836565b6040516102719190610fe1565b60405180910390f35b60007f0000000000000000000000000000000000000000000000000000000000000000905090565b6000600160149054906101000a900460ff16905090565b7f000000000000000000000000000000000000000000000000000000000000000073ffffffffffffffffffffffffffffffffffffffff163373ffffffffffffffffffffffffffffffffffffffff161461036b57337f00000000000000000000000000000000000000000000000000000000000000006040517f1cf993f4000000000000000000000000000000000000000000000000000000008152600401610362929190610f1a565b60405180910390fd5b6103758282610842565b5050565b6000600181111561038d5761038c6112bb565b5b600160149054906101000a900460ff1660018111156103af576103ae6112bb565b5b146103e6576040517f1425571c00000000000000000000000000000000000000000000000000000000815260040160405180910390fd5b7f0000000000000000000000000000000000000000000000000000000000000000341015610440576040517f5853becf00000000000000000000000000000000000000000000000000000000815260040160405180910390fd5b6000339080600181540180825580915050600190039060005260206000200160009091909190916101000a81548173ffffffffffffffffffffffffffffffffffffffff021916908373ffffffffffffffffffffffffffffffffffffffff1602179055503373ffffffffffffffffffffffffffffffffffffffff167f0805e1d667bddb8a95f0f09880cf94f403fb596ce79928d9f29b74203ba284d460405160405180910390a2565b6000610502604051806020016040528060008152506106e7565b509050806105715760008054905047600160149054906101000a900460ff166001811115610533576105326112bb565b5b6040517f584327aa00000000000000000000000000000000000000000000000000000000815260040161056893929190610ffc565b60405180910390fd5b60018060146101000a81548160ff02191690836001811115610596576105956112bb565b5b021790555060007f000000000000000000000000000000000000000000000000000000000000000073ffffffffffffffffffffffffffffffffffffffff16635d3b1d307f00000000000000000000000000000000000000000000000000000000000000007f000000000000000000000000000000000000000000000000000000000000000060037f000000000000000000000000000000000000000000000000000000000000000060016040518663ffffffff1660e01b8152600401610660959493929190610f73565b602060405180830381600087803b15801561067a57600080fd5b505af115801561068e573d6000803e3d6000fd5b505050506040513d601f19601f820116820180604052508101906106b29190610d8d565b9050807fcd6e45c8998311cab7e9d4385596cac867e20a0587194b954fa3a731c93ce78b60405160405180910390a250505050565b600060606000806001811115610700576106ff6112bb565b5b600160149054906101000a900460ff166001811115610722576107216112bb565b5b14905060007f00000000000000000000000000000000000000000000000000000000000000006002544261075691906110dc565b119050600080600080549050119050600080471190508380156107765750825b801561077f5750815b80156107885750805b955050505050915091565b60007f0000000000000000000000000000000000000000000000000000000000000000905090565b6000600254905090565b6000600160009054906101000a900473ffffffffffffffffffffffffffffffffffffffff16905090565b6000808281548110610804576108036112ea565b5b9060005260206000200160009054906101000a900473ffffffffffffffffffffffffffffffffffffffff169050919050565b60008080549050905090565b600080805490508260008151811061085d5761085c6112ea565b5b602002602001015161086f919061122c565b90506000808281548110610886576108856112ea565b5b9060005260206000200160009054906101000a900473ffffffffffffffffffffffffffffffffffffffff16905080600160006101000a81548173ffffffffffffffffffffffffffffffffffffffff021916908373ffffffffffffffffffffffffffffffffffffffff160217905550600067ffffffffffffffff81111561090f5761090e611319565b5b60405190808252806020026020018201604052801561093d5781602001602082028036833780820191505090505b5060009080519060200190610953929190610a95565b50426002819055506000600160146101000a81548160ff02191690836001811115610981576109806112bb565b5b02179055506000600160009054906101000a900473ffffffffffffffffffffffffffffffffffffffff1673ffffffffffffffffffffffffffffffffffffffff16476040516109ce90610eea565b60006040518083038185875af1925050503d8060008114610a0b576040519150601f19603f3d011682016040523d82523d6000602084013e610a10565b606091505b5050905080610a4b576040517f689f2c6a00000000000000000000000000000000000000000000000000000000815260040160405180910390fd5b8173ffffffffffffffffffffffffffffffffffffffff167f5b690ec4a06fe979403046eaeea5b3ce38524683c3001f662c8b5a829632f7df60405160405180910390a25050505050565b828054828255906000526020600020908101928215610b0e579160200282015b82811115610b0d5782518260006101000a81548173ffffffffffffffffffffffffffffffffffffffff021916908373ffffffffffffffffffffffffffffffffffffffff16021790555091602001919060010190610ab5565b5b509050610b1b9190610b1f565b5090565b5b80821115610b38576000816000905550600101610b20565b5090565b6000610b4f610b4a84611058565b611033565b90508083825260208201905082856020860282011115610b7257610b71611352565b5b60005b85811015610ba25781610b888882610ca0565b845260208401935060208301925050600181019050610b75565b5050509392505050565b6000610bbf610bba84611084565b611033565b905082815260208101848484011115610bdb57610bda611357565b5b610be68482856111b9565b509392505050565b600082601f830112610c0357610c0261134d565b5b8135610c13848260208601610b3c565b91505092915050565b60008083601f840112610c3257610c3161134d565b5b8235905067ffffffffffffffff811115610c4f57610c4e611348565b5b602083019150836001820283011115610c6b57610c6a611352565b5b9250929050565b600082601f830112610c8757610c8661134d565b5b8135610c97848260208601610bac565b91505092915050565b600081359050610caf8161138e565b92915050565b600081519050610cc48161138e565b92915050565b60008060208385031215610ce157610ce0611361565b5b600083013567ffffffffffffffff811115610cff57610cfe61135c565b5b610d0b85828601610c1c565b92509250509250929050565b600060208284031215610d2d57610d2c611361565b5b600082013567ffffffffffffffff811115610d4b57610d4a61135c565b5b610d5784828501610c72565b91505092915050565b600060208284031215610d7657610d75611361565b5b6000610d8484828501610ca0565b91505092915050565b600060208284031215610da357610da2611361565b5b6000610db184828501610cb5565b91505092915050565b60008060408385031215610dd157610dd0611361565b5b6000610ddf85828601610ca0565b925050602083013567ffffffffffffffff811115610e0057610dff61135c565b5b610e0c85828601610bee565b9150509250929050565b610e1f81611110565b82525050565b610e2e81611122565b82525050565b610e3d8161112e565b82525050565b6000610e4e826110b5565b610e5881856110c0565b9350610e688185602086016111c8565b610e7181611366565b840191505092915050565b610e85816111a7565b82525050565b6000610e986000836110d1565b9150610ea382611377565b600082019050919050565b610eb78161114b565b82525050565b610ec681611179565b82525050565b610ed581611183565b82525050565b610ee481611193565b82525050565b6000610ef582610e8b565b9150819050919050565b6000602082019050610f146000830184610e16565b92915050565b6000604082019050610f2f6000830185610e16565b610f3c6020830184610e16565b9392505050565b6000604082019050610f586000830185610e25565b8181036020830152610f6a8184610e43565b90509392505050565b600060a082019050610f886000830188610e34565b610f956020830187610edb565b610fa26040830186610eae565b610faf6060830185610ecc565b610fbc6080830184610ecc565b9695505050505050565b6000602082019050610fdb6000830184610e7c565b92915050565b6000602082019050610ff66000830184610ebd565b92915050565b60006060820190506110116000830186610ebd565b61101e6020830185610ebd565b61102b6040830184610ebd565b949350505050565b600061103d61104e565b905061104982826111fb565b919050565b6000604051905090565b600067ffffffffffffffff82111561107357611072611319565b5b602082029050602081019050919050565b600067ffffffffffffffff82111561109f5761109e611319565b5b6110a882611366565b9050602081019050919050565b600081519050919050565b600082825260208201905092915050565b600081905092915050565b60006110e782611179565b91506110f283611179565b9250828210156111055761110461125d565b5b828203905092915050565b600061111b82611159565b9050919050565b60008115159050919050565b6000819050919050565b60008190506111468261137a565b919050565b600061ffff82169050919050565b600073ffffffffffffffffffffffffffffffffffffffff82169050919050565b6000819050919050565b600063ffffffff82169050919050565b600067ffffffffffffffff82169050919050565b60006111b282611138565b9050919050565b82818337600083830152505050565b60005b838110156111e65780820151818401526020810190506111cb565b838111156111f5576000848401525b50505050565b61120482611366565b810181811067ffffffffffffffff8211171561122357611222611319565b5b80604052505050565b600061123782611179565b915061124283611179565b9250826112525761125161128c565b5b828206905092915050565b7f4e487b7100000000000000000000000000000000000000000000000000000000600052601160045260246000fd5b7f4e487b7100000000000000000000000000000000000000000000000000000000600052601260045260246000fd5b7f4e487b7100000000000000000000000000000000000000000000000000000000600052602160045260246000fd5b7f4e487b7100000000000000000000000000000000000000000000000000000000600052603260045260246000fd5b7f4e487b7100000000000000000000000000000000000000000000000000000000600052604160045260246000fd5b600080fd5b600080fd5b600080fd5b600080fd5b600080fd5b600080fd5b6000601f19601f8301169050919050565b50565b6002811061138b5761138a6112bb565b5b50565b61139781611179565b81146113a257600080fd5b5056fea2646970667358221220069c2e0414cf8cb9aa4bedb00a41918d39ddce2b5a315e6eb2c0af5231a596dc64736f6c63430008070033",
  "devdoc": {
    "kind": "dev",
    "methods": {},
    "version": 1
  },
  "userdoc": {
    "kind": "user",
    "methods": {},
    "version": 1
  },
  "storageLayout": {
    "storage": [
      {
        "astId": 196,
        "contract": "contracts/Raffle.sol:Raffle",
        "label": "s_players",
        "offset": 0,
        "slot": "0",
        "type": "t_array(t_address_payable)dyn_storage"
      },
      {
        "astId": 213,
        "contract": "contracts/Raffle.sol:Raffle",
        "label": "s_recenWinner",
        "offset": 0,
        "slot": "1",
        "type": "t_address"
      },
      {
        "astId": 216,
        "contract": "contracts/Raffle.sol:Raffle",
        "label": "s_raffleState",
        "offset": 20,
        "slot": "1",
        "type": "t_enum(RaffleState)191"
      },
      {
        "astId": 218,
        "contract": "contracts/Raffle.sol:Raffle",
        "label": "s_lastTimeStamp",
        "offset": 0,
        "slot": "2",
        "type": "t_uint256"
      }
    ],
    "types": {
      "t_address": {
        "encoding": "inplace",
        "label": "address",
        "numberOfBytes": "20"
      },
      "t_address_payable": {
        "encoding": "inplace",
        "label": "address payable",
        "numberOfBytes": "20"
      },
      "t_array(t_address_payable)dyn_storage": {
        "base": "t_address_payable",
        "encoding": "dynamic_array",
        "label": "address payable[]",
        "numberOfBytes": "32"
      },
      "t_enum(RaffleState)191": {
        "encoding": "inplace",
        "label": "enum Raffle.RaffleState",
        "numberOfBytes": "1"
      },
      "t_uint256": {
        "encoding": "inplace",
        "label": "uint256",
        "numberOfBytes": "32"
      }
    }
  }
}